{
  "contractName": "EasyContract",
  "abi": [
    {
      "inputs": [],
      "payable": false,
      "stateMutability": "nonpayable",
      "type": "constructor",
      "signature": "constructor"
    },
    {
      "constant": false,
      "inputs": [
        {
          "name": "_titulo",
          "type": "string"
        },
        {
          "name": "_conteudo",
          "type": "bytes32"
        },
        {
          "name": "_dataCriacao",
          "type": "uint256"
        },
        {
          "name": "_contratoId",
          "type": "uint256"
        },
        {
          "name": "_easyContractHashId",
          "type": "string"
        }
      ],
      "name": "insereContrato",
      "outputs": [
        {
          "name": "retorno",
          "type": "bool"
        }
      ],
      "payable": false,
      "stateMutability": "nonpayable",
      "type": "function",
      "signature": "0x8f463826"
    },
    {
      "constant": false,
      "inputs": [
        {
          "name": "_novotitulo",
          "type": "string"
        },
        {
          "name": "_novoConteudo",
          "type": "bytes32"
        },
        {
          "name": "_easyContractHashId",
          "type": "string"
        }
      ],
      "name": "alterarContrato",
      "outputs": [
        {
          "name": "retorno",
          "type": "bool"
        }
      ],
      "payable": false,
      "stateMutability": "nonpayable",
      "type": "function",
      "signature": "0x8eee43ca"
    },
    {
      "constant": false,
      "inputs": [
        {
          "name": "_easyContractHashId",
          "type": "string"
        }
      ],
      "name": "deletarContrato",
      "outputs": [
        {
          "name": "retorno",
          "type": "bool"
        }
      ],
      "payable": false,
      "stateMutability": "nonpayable",
      "type": "function",
      "signature": "0x0be01c03"
    },
    {
      "constant": false,
      "inputs": [
        {
          "name": "_easyContractHashId",
          "type": "string"
        },
        {
          "name": "_privateKeyParticipante",
          "type": "string"
        },
        {
          "name": "_dataAssiantura",
          "type": "uint256"
        },
        {
          "name": "_ipParticipante",
          "type": "string"
        },
        {
          "name": "_nomeParticipante",
          "type": "string"
        },
        {
          "name": "_cgcParticipante",
          "type": "string"
        }
      ],
      "name": "inserirAssinatura",
      "outputs": [
        {
          "name": "retorno",
          "type": "bool"
        }
      ],
      "payable": false,
      "stateMutability": "nonpayable",
      "type": "function",
      "signature": "0x64e8511b"
    },
    {
      "constant": false,
      "inputs": [
        {
          "name": "_easyContractHashId",
          "type": "string"
        },
        {
          "name": "_privateKeyParticipante",
          "type": "string"
        }
      ],
      "name": "removerAssinatura",
      "outputs": [
        {
          "name": "retorno",
          "type": "bool"
        }
      ],
      "payable": false,
      "stateMutability": "nonpayable",
      "type": "function",
      "signature": "0xa65f386a"
    },
    {
      "constant": true,
      "inputs": [
        {
          "name": "_easyContractHashId",
          "type": "string"
        }
      ],
      "name": "buscarContrato",
      "outputs": [
        {
          "name": "titulo",
          "type": "string"
        },
        {
          "name": "conteudo",
          "type": "bytes32"
        },
        {
          "name": "dataCriacao",
          "type": "uint256"
        },
        {
          "name": "criador",
          "type": "address"
        }
      ],
      "payable": false,
      "stateMutability": "view",
      "type": "function",
      "signature": "0xdeefd404"
    },
    {
      "constant": true,
      "inputs": [
        {
          "name": "_easyContractHashId",
          "type": "string"
        },
        {
          "name": "_privateKeyParticipante",
          "type": "string"
        }
      ],
      "name": "buscarAssinatura",
      "outputs": [
        {
          "name": "retorno",
          "type": "bool"
        }
      ],
      "payable": false,
      "stateMutability": "view",
      "type": "function",
      "signature": "0x42010945"
    }
  ],
  "bytecode": "0x608060405234801561001057600080fd5b50336000806101000a81548173ffffffffffffffffffffffffffffffffffffffff021916908373ffffffffffffffffffffffffffffffffffffffff160217905550600060028190555060006001819055506118b6806100706000396000f3fe608060405260043610610083576000357c0100000000000000000000000000000000000000000000000000000000900463ffffffff1680630be01c0314610088578063420109451461016857806364e8511b146102df5780638eee43ca146106255780638f463826146107a6578063a65f386a1461093b578063deefd40414610ab2575b600080fd5b34801561009457600080fd5b5061014e600480360360208110156100ab57600080fd5b81019080803590602001906401000000008111156100c857600080fd5b8201836020820111156100da57600080fd5b803590602001918460018302840111640100000000831117156100fc57600080fd5b91908080601f016020809104026020016040519081016040528093929190818152602001838380828437600081840152601f19601f820116905080830192505050505050509192919290505050610c34565b604051808215151515815260200191505060405180910390f35b34801561017457600080fd5b506102c56004803603604081101561018b57600080fd5b81019080803590602001906401000000008111156101a857600080fd5b8201836020820111156101ba57600080fd5b803590602001918460018302840111640100000000831117156101dc57600080fd5b91908080601f016020809104026020016040519081016040528093929190818152602001838380828437600081840152601f19601f8201169050808301925050505050505091929192908035906020019064010000000081111561023f57600080fd5b82018360208201111561025157600080fd5b8035906020019184600183028401116401000000008311171561027357600080fd5b91908080601f016020809104026020016040519081016040528093929190818152602001838380828437600081840152601f19601f820116905080830192505050505050509192919290505050610d14565b604051808215151515815260200191505060405180910390f35b3480156102eb57600080fd5b5061060b600480360360c081101561030257600080fd5b810190808035906020019064010000000081111561031f57600080fd5b82018360208201111561033157600080fd5b8035906020019184600183028401116401000000008311171561035357600080fd5b91908080601f016020809104026020016040519081016040528093929190818152602001838380828437600081840152601f19601f820116905080830192505050505050509192919290803590602001906401000000008111156103b657600080fd5b8201836020820111156103c857600080fd5b803590602001918460018302840111640100000000831117156103ea57600080fd5b91908080601f016020809104026020016040519081016040528093929190818152602001838380828437600081840152601f19601f820116905080830192505050505050509192919290803590602001909291908035906020019064010000000081111561045757600080fd5b82018360208201111561046957600080fd5b8035906020019184600183028401116401000000008311171561048b57600080fd5b91908080601f016020809104026020016040519081016040528093929190818152602001838380828437600081840152601f19601f820116905080830192505050505050509192919290803590602001906401000000008111156104ee57600080fd5b82018360208201111561050057600080fd5b8035906020019184600183028401116401000000008311171561052257600080fd5b91908080601f016020809104026020016040519081016040528093929190818152602001838380828437600081840152601f19601f8201169050808301925050505050505091929192908035906020019064010000000081111561058557600080fd5b82018360208201111561059757600080fd5b803590602001918460018302840111640100000000831117156105b957600080fd5b91908080601f016020809104026020016040519081016040528093929190818152602001838380828437600081840152601f19601f820116905080830192505050505050509192919290505050610e06565b604051808215151515815260200191505060405180910390f35b34801561063157600080fd5b5061078c6004803603606081101561064857600080fd5b810190808035906020019064010000000081111561066557600080fd5b82018360208201111561067757600080fd5b8035906020019184600183028401116401000000008311171561069957600080fd5b91908080601f016020809104026020016040519081016040528093929190818152602001838380828437600081840152601f19601f820116905080830192505050505050509192919290803590602001909291908035906020019064010000000081111561070657600080fd5b82018360208201111561071857600080fd5b8035906020019184600183028401116401000000008311171561073a57600080fd5b91908080601f016020809104026020016040519081016040528093929190818152602001838380828437600081840152601f19601f820116905080830192505050505050509192919290505050611055565b604051808215151515815260200191505060405180910390f35b3480156107b257600080fd5b50610921600480360360a08110156107c957600080fd5b81019080803590602001906401000000008111156107e657600080fd5b8201836020820111156107f857600080fd5b8035906020019184600183028401116401000000008311171561081a57600080fd5b91908080601f016020809104026020016040519081016040528093929190818152602001838380828437600081840152601f19601f8201169050808301925050505050505091929192908035906020019092919080359060200190929190803590602001909291908035906020019064010000000081111561089b57600080fd5b8201836020820111156108ad57600080fd5b803590602001918460018302840111640100000000831117156108cf57600080fd5b91908080601f016020809104026020016040519081016040528093929190818152602001838380828437600081840152601f19601f820116905080830192505050505050509192919290505050611158565b604051808215151515815260200191505060405180910390f35b34801561094757600080fd5b50610a986004803603604081101561095e57600080fd5b810190808035906020019064010000000081111561097b57600080fd5b82018360208201111561098d57600080fd5b803590602001918460018302840111640100000000831117156109af57600080fd5b91908080601f016020809104026020016040519081016040528093929190818152602001838380828437600081840152601f19601f82011690508083019250505050505050919291929080359060200190640100000000811115610a1257600080fd5b820183602082011115610a2457600080fd5b80359060200191846001830284011164010000000083111715610a4657600080fd5b91908080601f016020809104026020016040519081016040528093929190818152602001838380828437600081840152601f19601f820116905080830192505050505050509192919290505050611302565b604051808215151515815260200191505060405180910390f35b348015610abe57600080fd5b50610b7860048036036020811015610ad557600080fd5b8101908080359060200190640100000000811115610af257600080fd5b820183602082011115610b0457600080fd5b80359060200191846001830284011164010000000083111715610b2657600080fd5b91908080601f016020809104026020016040519081016040528093929190818152602001838380828437600081840152601f19601f820116905080830192505050505050509192919290505050611400565b60405180806020018581526020018481526020018373ffffffffffffffffffffffffffffffffffffffff1673ffffffffffffffffffffffffffffffffffffffff168152602001828103825286818151815260200191508051906020019080838360005b83811015610bf6578082015181840152602081019050610bdb565b50505050905090810190601f168015610c235780820380516001836020036101000a031916815260200191505b509550505050505060405180910390f35b60006003826040518082805190602001908083835b602083101515610c6e5780518252602082019150602081019050602083039250610c49565b6001836020036101000a038019825116818451168082178552505050505050905001915050908152602001604051809103902060008082016000610cb2919061168d565b600182016000905560028201600090556003820160006101000a81549073ffffffffffffffffffffffffffffffffffffffff02191690556004820160009055600582016000610d01919061168d565b6006820160009055505060019050919050565b60006003836040518082805190602001908083835b602083101515610d4e5780518252602082019150602081019050602083039250610d29565b6001836020036101000a0380198251168184511680821785525050505050509050019150509081526020016040518091039020600701826040518082805190602001908083835b602083101515610dba5780518252602082019150602081019050602083039250610d95565b6001836020036101000a038019825116818451168082178552505050505050905001915050908152602001604051809103902060050160009054906101000a900460ff16905092915050565b6000610e106116d5565b8681600001819052508581602001818152505084816040018190525083816060018190525082816080018190525060018160a00190151590811515815250506003886040518082805190602001908083835b602083101515610e875780518252602082019150602081019050602083039250610e62565b6001836020036101000a038019825116818451168082178552505050505050905001915050908152602001604051809103902060060160008154809291906001019190505550806003896040518082805190602001908083835b602083101515610f065780518252602082019150602081019050602083039250610ee1565b6001836020036101000a0380198251168184511680821785525050505050509050019150509081526020016040518091039020600701886040518082805190602001908083835b602083101515610f725780518252602082019150602081019050602083039250610f4d565b6001836020036101000a03801982511681845116808217855250505050505090500191505090815260200160405180910390206000820151816000019080519060200190610fc192919061170e565b50602082015181600101556040820151816002019080519060200190610fe892919061170e565b50606082015181600301908051906020019061100592919061170e565b50608082015181600401908051906020019061102292919061170e565b5060a08201518160050160006101000a81548160ff02191690831515021790555090505060019150509695505050505050565b6000836003836040518082805190602001908083835b602083101515611090578051825260208201915060208101905060208303925061106b565b6001836020036101000a038019825116818451168082178552505050505050905001915050908152602001604051809103902060000190805190602001906110d992919061178e565b50826003836040518082805190602001908083835b60208310151561111357805182526020820191506020810190506020830392506110ee565b6001836020036101000a038019825116818451168082178552505050505050905001915050908152602001604051809103902060010181905550600190509392505050565b600061116261180e565b868160000181905250858160200181815250508481604001818152505033816060019073ffffffffffffffffffffffffffffffffffffffff16908173ffffffffffffffffffffffffffffffffffffffff168152505083816080018181525050828160a00181905250600160008154809291906001019190505550806003846040518082805190602001908083835b60208310151561121557805182526020820191506020810190506020830392506111f0565b6001836020036101000a0380198251168184511680821785525050505050509050019150509081526020016040518091039020600082015181600001908051906020019061126492919061170e565b50602082015181600101556040820151816002015560608201518160030160006101000a81548173ffffffffffffffffffffffffffffffffffffffff021916908373ffffffffffffffffffffffffffffffffffffffff1602179055506080820151816004015560a08201518160050190805190602001906112e692919061170e565b5060c08201518160060155905050600191505095945050505050565b6000806003846040518082805190602001908083835b60208310151561133d5780518252602082019150602081019050602083039250611318565b6001836020036101000a0380198251168184511680821785525050505050509050019150509081526020016040518091039020600701836040518082805190602001908083835b6020831015156113a95780518252602082019150602081019050602083039250611384565b6001836020036101000a038019825116818451168082178552505050505050905001915050908152602001604051809103902060050160006101000a81548160ff0219169083151502179055506001905092915050565b606060008060006003856040518082805190602001908083835b60208310151561143f578051825260208201915060208101905060208303925061141a565b6001836020036101000a03801982511681845116808217855250505050505090500191505090815260200160405180910390206000016003866040518082805190602001908083835b6020831015156114ad5780518252602082019150602081019050602083039250611488565b6001836020036101000a0380198251168184511680821785525050505050509050019150509081526020016040518091039020600101546003876040518082805190602001908083835b60208310151561151c57805182526020820191506020810190506020830392506114f7565b6001836020036101000a0380198251168184511680821785525050505050509050019150509081526020016040518091039020600201546003886040518082805190602001908083835b60208310151561158b5780518252602082019150602081019050602083039250611566565b6001836020036101000a038019825116818451168082178552505050505050905001915050908152602001604051809103902060030160009054906101000a900473ffffffffffffffffffffffffffffffffffffffff16838054600181600116156101000203166002900480601f0160208091040260200160405190810160405280929190818152602001828054600181600116156101000203166002900480156116775780601f1061164c57610100808354040283529160200191611677565b820191906000526020600020905b81548152906001019060200180831161165a57829003601f168201915b5050505050935093509350935093509193509193565b50805460018160011615610100020316600290046000825580601f106116b357506116d2565b601f0160209004906000526020600020908101906116d19190611865565b5b50565b60c06040519081016040528060608152602001600081526020016060815260200160608152602001606081526020016000151581525090565b828054600181600116156101000203166002900490600052602060002090601f016020900481019282601f1061174f57805160ff191683800117855561177d565b8280016001018555821561177d579182015b8281111561177c578251825591602001919060010190611761565b5b50905061178a9190611865565b5090565b828054600181600116156101000203166002900490600052602060002090601f016020900481019282601f106117cf57805160ff19168380011785556117fd565b828001600101855582156117fd579182015b828111156117fc5782518255916020019190600101906117e1565b5b50905061180a9190611865565b5090565b60e060405190810160405280606081526020016000801916815260200160008152602001600073ffffffffffffffffffffffffffffffffffffffff1681526020016000815260200160608152602001600081525090565b61188791905b8082111561188357600081600090555060010161186b565b5090565b9056fea165627a7a72305820ad54560771e947d6c26dee7fb431efbf9648fca84a02dfa812ecaa11f3a29ac60029",
  "source": "pragma solidity ^0.5.0; \r\n\r\ncontract EasyContract {\r\n    address criadorContratoInteligente;\r\n    uint    sequencialContratos;\r\n    uint    nonce;\r\n    \r\n    struct assinatura {\r\n        string privateKeyParticipante;\r\n        uint256 dataAssinatura;\r\n        string ipParticipante;\r\n        string nomeParticipante;\r\n        string cgcParticipante;\r\n        bool assinado;\r\n    }\r\n    \r\n    struct contrato {\r\n        string titulo;\r\n        bytes32 conteudo;\r\n        uint256 dataCriacao;\r\n        address criador;\r\n        uint contratoId;\r\n        string _easyContractHashId;\r\n        uint numeroAssinaturas;\r\n        mapping (string => assinatura) assinaturas;\r\n    }\r\n    \r\n    mapping (string => contrato) contratos;\r\n\r\n    constructor () public {\r\n\t\tcriadorContratoInteligente  = msg.sender;\r\n        nonce                       = 0;\r\n        sequencialContratos         = 0;\r\n\t}\r\n\r\n\tfunction insereContrato(string memory _titulo,\r\n\t                        bytes32 _conteudo,\r\n\t                        uint _dataCriacao,\r\n                            uint _contratoId,\r\n                            string memory _easyContractHashId) public returns(bool retorno){\r\n                                \r\n        contrato memory _contrato;\r\n\r\n        _contrato.titulo                    = _titulo;\r\n        _contrato.conteudo                  = _conteudo;\r\n        _contrato.dataCriacao               = _dataCriacao;\r\n        _contrato.criador                   = msg.sender;\r\n        _contrato.contratoId                = _contratoId;\r\n        _contrato._easyContractHashId       = _easyContractHashId;\r\n        \r\n        sequencialContratos++;\r\n\r\n        contratos[_easyContractHashId] = _contrato;\r\n\r\n        return true;\r\n    }\r\n\r\n    function alterarContrato(string memory _novotitulo,\r\n                             bytes32 _novoConteudo,\r\n                             string memory _easyContractHashId) public returns(bool retorno){\r\n        contratos[_easyContractHashId].titulo = _novotitulo;\r\n        contratos[_easyContractHashId].conteudo = _novoConteudo;\r\n\r\n        return true;\r\n    }\r\n\r\n    function deletarContrato(string memory _easyContractHashId) public returns (bool retorno){\r\n        delete contratos[_easyContractHashId];\r\n\r\n        return true;\r\n    }\r\n\r\n    function inserirAssinatura(string memory _easyContractHashId,\r\n                               string memory _privateKeyParticipante,\r\n                               uint256 _dataAssiantura,\r\n                               string memory _ipParticipante,\r\n                               string memory _nomeParticipante,\r\n                               string memory _cgcParticipante) public returns (bool retorno){\r\n        assinatura memory novaAssinatura;\r\n\r\n        novaAssinatura.privateKeyParticipante   = _privateKeyParticipante;\r\n        novaAssinatura.dataAssinatura           = _dataAssiantura;\r\n        novaAssinatura.ipParticipante           = _ipParticipante;\r\n        novaAssinatura.nomeParticipante         = _nomeParticipante;\r\n        novaAssinatura.cgcParticipante          = _cgcParticipante;\r\n        novaAssinatura.assinado                 = true;\r\n\r\n        contratos[_easyContractHashId].numeroAssinaturas ++;\r\n        contratos[_easyContractHashId].assinaturas[_privateKeyParticipante] = novaAssinatura;\r\n\r\n        return true; \r\n    }\r\n\r\n    function removerAssinatura(string memory _easyContractHashId,\r\n                               string memory _privateKeyParticipante) public returns (bool retorno){\r\n        contratos[_easyContractHashId].assinaturas[_privateKeyParticipante].assinado = false;\r\n        \r\n        return true;\r\n    }\r\n    \r\n    function buscarContrato(string memory _easyContractHashId) public view returns (string memory titulo, \r\n                                                                                    bytes32 conteudo, \r\n                                                                                    uint256 dataCriacao,\r\n                                                                                    address criador) {\r\n        return (\r\n            contratos[_easyContractHashId].titulo,\r\n            contratos[_easyContractHashId].conteudo,\r\n            contratos[_easyContractHashId].dataCriacao,\r\n            contratos[_easyContractHashId].criador\r\n        );\r\n    }\r\n    \r\n    function buscarAssinatura(string memory _easyContractHashId,\r\n                              string memory _privateKeyParticipante) public view returns (bool retorno){\r\n        return contratos[_easyContractHashId].assinaturas[_privateKeyParticipante].assinado;\r\n    }   \r\n}",
  "sourcePath": "C:/Users/guilh/Desktop/Guilherme/Faculdade/TCC/EasyContract/apiEasyContract/contracts/easyContract.sol",
  "compiler": {
    "name": "solc",
    "version": "0.5.0+commit.1d4f565a.Emscripten.clang"
  },
  "schemaVersion": "3.0.6",
  "updatedAt": "2019-05-08T00:24:42.844Z",
  "devdoc": {
    "methods": {}
  },
  "userdoc": {
    "methods": {}
  }
}